:020000040000FA
:060000000A128A110C280F
:10000800FE00030EF0000A08F1000A128A15012DFD
:100018000A128A110F288313E630FD000C30FE0007
:100028003730FF00C73084000A128A15FF230A12EE
:100038008A116F30FD000B30FE004230FF00663041
:1000480084000A128A15FF230A128A110A128A11D9
:10005800FD270A128A11FB00A0308400C7300A125B
:100068008A153A230A128A115C30840066300A1213
:100078008A153A230A128A11FA0183010A128A118F
:10008800D32AFF0000308A007F0882074A280A1214
:100098008A15322B0A128A15B22B0A128A154B2B93
:1000A800831203133608BE003708BF000030BF1B99
:1000B800FF30C000C1003808C2003908C300003052
:1000C800C31BFF30C400C5003E08C2023F08031C22
:1000D8003F0F6F287028C3024008031C400F752883
:1000E8007628C4024108031C410F7B287C28C502DE
:1000F8004508D1004408D0004308CF004208CE008C
:10010800510850044F044E04031D8B288C28962850
:100118003A08B4003B08B5000030B51BFF30B60004
:10012800B70043293A08BE003B08BF000030BF1B98
:10013800FF30C000C1003C08C2003D08C3000030C9
:10014800C31BFF30C400C5003E08C2023F08031CA1
:100158003F0FAF28B028C3024008031C400FB52842
:10016800B628C4024108031C410FBB28BC28C5029D
:100178004508C9004408C8004308C7004208C6002B
:100188003608BE003708BF000030BF1BFF30C00074
:10019800C1003408C2003508C3000030C31BFF305B
:1001A800C400C5003E08C2023F08031C3F0FDD28FB
:1001B800DE28C3024008031C400FE328E428C402D9
:1001C8004108031C410FE928EA28C5024508CD006B
:1001D8004408CC004308CB004208CA003A08BE00D5
:1001E8003B08BF000030BF1BFF30C000C1005108F2
:1001F800A8005008A7004F08A6004E08A5004D0803
:10020800F5004C08F4004B08F3004A08F2004908CE
:10021800F9004808F8004708F7004608F6000A12EF
:100228008A119B270A128A11750883120313AC00DE
:100238007408AB007308AA007208A9000A128A1190
:1002480070230A128A11831203132508BE07260891
:100258000318260F30293129BF0727080318270F4D
:1002680036293729C00728080318280AC107410872
:10027800B7004008B6003F08B5003E08B4000800C3
:10028800831203132B0884008313000884000A12C6
:100298008A1113240A128A11253A031D5429552953
:1002A800192A2B0884000130800783160313C30121
:1002B800C401003083120313E400FF3083160313D4
:1002C800C500FF30C600831203132B088400000802
:1002D800B000300884000A128A1113240A128A1105
:1002E800643A0319782979298529300884000A1283
:1002F8008A1113240A128A11693A031D842985294F
:10030800112A2C0884000008FF00023080077F08AB
:1003180084000008B100840A0008B2002B08840099
:100328003008013E80002030B500B21B9C299E2970
:1003380001309F290030AF000130B5023508A03EDA
:1003480084000A30F2000030F3003208F50031086A
:10035800F4000A128A11F6260A128A117308F900A3
:100368007208F8000A128A15C2230A128A1178083C
:10037800303E831380000A30F2000030F30083120D
:1003880003133208F5003108F4000A128A11D62541
:100398000A128A11730883120313B2007208B1009B
:1003A800310832040319D929DA29DF293508031D50
:1003B800DE29DF29A02935080319E329E4290A2AB7
:1003C8002F080319E829E9290A2A0130B502350856
:1003D800A03E84002D30831380000A2A3508A03EF1
:1003E800840083130008AD00AE012D08F2002E082A
:1003F800F3002908F4002A08F5000A128A113322AA
:100408000A128A11013083120313B507203035060A
:10041800031D0F2A102AF229322A831203132B08EC
:100428008400013083138007322A2B0884000008D7
:1004380084000A128A1113240A128A11AD00AE012F
:100448002D08F2002E08F3002908F4002A08F50008
:100458000A128A1133220A128A11112A0800740812
:1004680075040319382A392A3F2A74087504031DAC
:100478003E2A3F2A462A72080A128A11FE270A12C1
:100488008A11D22A7408093E83120313A000750842
:100498000318013E003EA100200884008317211C98
:1004A80083130008A200840A0008A300220823047A
:1004B80003195F2A602A922A7408093EA000750869
:1004C8000318013E003EA100200884008317211C68
:1004D80083130008A200840A0008A3007408023EDF
:1004E800A40075080318013E003EA50024088400F6
:1004F8008317251C83130008A600840A0008A70098
:100508002708803AA8002308803A2802031D8E2A6B
:10051800220826020318912A922AD22A74088400F3
:100528008317751C8313000883120313A000840A21
:100538000008A1007408023EA20075080318013ED5
:10054800003EA300220884008317231C831300089D
:100558002007A5002108A4000318A40A801FB52AB3
:10056800A403831203132408A60025088400831714
:10057800261C8313720880007408023EA0007508C8
:100588000318013E003EA100200884008317211CA7
:10059800831301308007840A0318800A0800FF309B
:1005A800F200F301F401FF300A128A15A3230A129C
:1005B8008A11831203130714871407160715871562
:1005C8000A128A1522230A128A110A128A152A2364
:1005D8000A128A110A128A1555230A128A110A1256
:1005E8008A1560230A128A110A128A1199260A1298
:1005F8008A110A128A15B2230A128A11D430F2001B
:100608000030F3000A128A1531260A128A11640092
:100618000A128A15C8250A128A118312031363085D
:10062800F7006208F6000A128A15E8260A128A11EB
:100638000A128A1568260A128A11E03083120313F7
:10064800D2000030D3000A128A118B240A128A11B0
:10065800DA3083120313D2000030D3000A128A1151
:100668008B240A128A11D43083120313D20000306B
:10067800D3000A128A118B240A128A1183120313D7
:100688006108803AFF0083307F02031D4D2B8430C0
:100698006002031C502B512B552B83120313871117
:1006A800582B8312031387155F08803AFF008030A8
:1006B8007F02031D612B1E305E02031C642B652B19
:1006C800692B8312031307120B2B831203130716CC
:1006D8000B2B0A128A110C2883120313AF01A81FCF
:1006E800762B772B842BA509A609A709A809A50AA3
:1006F8000319A60A0319A70A0319A80A0130AF00AB
:10070800AC1F872B882B952BA909AA09AB09AC0923
:10071800A90A0319AA0A0319AB0A0319AC0A01307A
:10072800AF060030B3000030B2000030B100003036
:10073800B00028082704260425040319A42BA52B98
:10074800F02B0130AE00B32B0130AD000310A50D26
:10075800A60DA70DA80DAD0BAA2B0130AE07A81F3B
:10076800B62BB72BA82B0130AD000310B00DB10D7F
:10077800B20DB30DAD0BB92B28082C02031DCE2BDF
:1007880027082B02031DCE2B26082A02031DCE2B79
:1007980025082902031CD12BD22BE12B2508A902FD
:1007A8002608031C260FAA022708031C270FAB02E2
:1007B8002808031C280FAC02301401300310A80CC1
:1007C800A70CA60CA50CFF3E031DE22B0130AE02C0
:1007D800031DEF2BF02BB72B2F080319F42BF52B48
:1007E800002CB009B109B209B309B00A0319B10A5A
:1007F8000319B20A0319B30A3308A8003208A7007C
:100808003108A6003008A5000800FF1B132C83132D
:100818007F1883170008840A0319FF0A08000430A8
:100828008A000408840A820700344C3455345A3448
:1008380020344134523454344934463449344334EE
:10084800493441344C3400344534533454344134FD
:1008580044344F342034543441344E3451345534B4
:1008680045340034543445344D34503445345234CE
:10087800413454345534523441343A3400345534C4
:100888004D344934443441344434453420345334A9
:100898004F344C344F340034493452345234493490
:1008A80047344134433441344F343A3400344434C7
:1008B800453453344C344934473441344434413456
:1008C800003443344834453449344F3400345634C2
:1008D80041345A3449344F34003445345234523454
:1008E8004F34523400344D34453449344F34003495
:1008F8004534523452344F3400344F34463446343D
:1009080000344F344E3400342534643400348312B8
:1009180003135208043ED40053080318013E003E56
:10092800D500540884008317551C83130008031D41
:100938009E2C9F2CA02C052D5208023ED400530853
:100948000318013E003ED500540884008317551C47
:1009580083130008D600840A0008D70056085C02F2
:10096800D8005708031C570A5D02D90052088400B2
:100978008317531C83130008D400840A0008D50089
:1009880055085902031DCA2C54085802031CCD2CC3
:10099800CE2C052D5208023ED40053080318013E00
:1009A800003ED500540884008317551C83135C0847
:1009B8008000840A5D0880005208053ED400530870
:1009C8000318013E003ED500540884008317551CC7
:1009D800831300080319F12CF22C052D5208053E4B
:1009E800D40053080318013E003ED5005408840083
:1009F8008317551C831300080A128A1145200A120E
:100A08008A110800831603135108831203135F0623
:100A1800031D142D831603135008831203135E0657
:100A2800031D172D182D1F2D65086A06031D1D2D82
:100A38001E2D1F2D702D5F0883160313D1008312FE
:100A480003135E0883160313D0000A128A156D2358
:100A58000A128A110330F60001300A128A114D2752
:100A68000A128A111E30F7008030F8000A128A151F
:100A78002D270A128A110730F60002300A128A114D
:100A88004D270A128A114C3083120313BB007030B1
:100A9800BC005F08BE005E08BD000A128A15DE248D
:100AA8000A128A114C30F7000030F8000A128A1531
:100AB8002D270A128A11DF300A128A15FC250A121C
:100AC8008A1143300A128A15FC250A128A110A1261
:100AD8008A1556240A128A1108008316031353082C
:100AE800831203136306031D7F2D83160313520815
:100AF800831203136206031D822D832D8A2D650838
:100B08006A06031D882D892D8A2DD52D6308831625
:100B18000313D30083120313620883160313D2004E
:100B28000A128A156D230A128A110230F600013062
:100B38000A128A114D270A128A112B30F7008030C9
:100B4800F8000A128A152D270A128A110630F600B3
:100B580002300A128A114D270A128A114C30831268
:100B68000313BB007030BC006308BE006208BD0000
:100B78000A128A15DE240A128A114C30F700003056
:100B8800F8000A128A152D270A128A1125300A122E
:100B98008A15FC250A128A110A128A1556240A1285
:100BA8008A110800F701F31FDA2DDB2DE22DF20977
:100BB800F309F20A0319F30A0130F700F51FE52DCE
:100BC800E62DED2DF409F509F40A0319F50A0130AB
:100BD800F706F801F901720873040319F42DF52DCD
:100BE8002A2E0130F600012E01300310F20DF30D0C
:100BF800FF3E031DF92D0130F607F31F042E052EC5
:100C0800F82D01300310F80DF90DFF3E031D062ED7
:100C180073087502031D122E72087402031C152E28
:100C2800162E1D2E7208F4027308031CF503F50234
:100C3800781401300310F30CF20CFF3E031D1E2E36
:100C48000130F602031D292E2A2E052E77080319D6
:100C58002E2E2F2E342EF809F909F80A0319F90A4D
:100C68007908F3007808F2000800831603134F0888
:100C7800831203136106031D472E831603134E08C0
:100C8800831203136006031D4A2E4B2E522E65084D
:100C98006A06031D502E512E522E982E6108831677
:100CA8000313CF0083120313600883160313CE00C7
:100CB8000A128A156D230A128A110230F6000130D1
:100CC8000A128A114D270A128A110130F700803062
:100CD800F8000A128A152D270A128A110430F60024
:100CE80002300A128A114D270A128A11831203133D
:100CF80087197F2E802E8A2E4630F7008030F80024
:100D08000A128A152D270A128A11932E4330F700EA
:100D18008030F8000A128A152D270A128A110A1241
:100D28008A1556240A128A11080000300A128A15F8
:100D380077240A128A111A30F700F830F600F60BF9
:100D4800A32EF70BA32E000003300A128A11E32703
:100D58000A128A110730F7007D30F600F60BB22E22
:100D6800F70BB22E03300A128A11E3270A128A11EE
:100D78000F30F7004730F600F60BC02EF70BC02EE9
:100D8800C52E03300A128A11E3270A128A1102308B
:100D98000A128A11E3270A128A1102300A128A11EA
:100DA800E3270A128A1108300A128A11E3270A1265
:100DB8008A1100300A128A11E3270A128A110C30AC
:100DC8000A128A11E3270A128A1100300A128A11BC
:100DD800E3270A128A1106300A128A11E3270A1237
:100DE8008A110800F701F51FFA2EFB2E022FF409CD
:100DF800F509F40A0319F50A0130F700F31F052F66
:100E0800062F0B2FF209F309F20A0319F30A7208E5
:100E180073040319102F112F3E2F0130F6001D2FD8
:100E280001300310F20DF30DFF3E031D152F0130A5
:100E3800F607F31F202F212F142F73087502031DA7
:100E4800272F72087402031C2A2F2B2F312F7208A8
:100E5800F4027308031CF503F50201300310F30CC8
:100E6800F20CFF3E031D322F0130F602031D3D2F09
:100E78003E2F212F77080319422F432F482FF409BB
:100E8800F509F40A0319F50A7508F3007408F20065
:100E9800080083120313A0002003031D542F552FAD
:100EA800752F76087F3EA3002308F700043003104F
:100EB800F70CFF3E031D5B2F7708A1002308A20053
:100EC8000F30A20521080A128A11E3270A128A1193
:100ED8008312031322080A128A11E3270A128A11BD
:100EE8009A2F02302006031D7A2F7B2F9A2F76081F
:100EF800BF3EA3002308F70004300310F70CFF3EA1
:100F0800031D812F7708A1002308A2000F30A20536
:100F180021080A128A11E3270A128A11831203137D
:100F280022080A128A11E3270A128A1108000030DF
:100F380083120313A4000030A3000030A200003085
:100F4800A100721CA82FA92FC02F7608A107770827
:100F580003110318013E0319B22FA20778080311E1
:100F68000318013E0319B92FA307790803110318C1
:100F7800013E0319C02FA4070130A0000310F60D8D
:100F8800F70DF80DF90DA00BC22F01300310F50C69
:100F9800F40CF30CF20CFF3E031DCA2F7508740401
:100FA80073047204031DD92FDA2FA52F2408F50026
:100FB8002308F4002208F3002108F2000800F500D5
:100FC80083120313081175080A128A1577240A1266
:100FD8008A118312031388150630F4003030F300A9
:100FE800F30BF42FF40BF42F000083120313881172
:060FF800080001340800AE
:101644008316031381150114811401156400080025
:101654008B178316031301170B160B170C140800B2
:101664000A128A15D5230A128A150330FB000800D2
:1016740064008001840A04060319003404063B2B29
:1016840032341E340134013401340534FF3401345E
:10169400FF340A128A1522240A128A150230831290
:1016A4000313ED0008008312031390101016901614
:1016B4000B308F00DB308E001014080083160313E8
:1016C4001F109F101F119F119F17831203131F13C5
:1016D4009F131F14080000300A128A11E3270A120C
:1016E4008A1501300A128A11E3270A128A150800A2
:1016F40002300A128A1525250A128A1573088312E4
:101704000313E1007208E00008000230831203139F
:101714006A0203188E2B8F2B922B0530EA00942B30
:101724000130EA0208000530831203136A02031C25
:101734009C2B9D2BA02B0130EA00A22B0130EA0741
:101744000800F500750883160313850072088600E7
:101754007308870074088800811307178717080027
:101764000A128A1573250A128A150A128A1549253E
:101774000A128A150A128A157A230A128A1508008F
:10178400F91BC52BC62BC72BD42B78098312031343
:10179400A0007909A100A00A0319A10A2008F800F1
:1017A4002108F9000800FA18D82BD92BDA2BE72BDB
:1017B400FA10831203130714E030F2000030F30030
:1017C4000A128A1599240A128A150800FA1CEB2BAE
:1017D400EC2BED2BFA2BFA14831203130710E030D1
:1017E400F2000030F3000A128A1531260A128A1513
:1017F40008007E088A007F0882000A128A15FB23EB
:101804000A128A158000840A04087D06031900342C
:10181400FF0A0319FE0AFF2B7A1C112C122C132C1D
:10182400212C831203138710ED017A14DA30F200AD
:101834000030F3000A128A1531260A128A150800AC
:101844007A18252C262C272C362C83120313871464
:101854007A100130ED00DA30F2000030F3000A12A1
:101864008A1599240A128A1508004D345F345334BA
:1018740064346D3469345934FF34FF34FF34FF3435
:10188400FF34FF34023400340034003400340434B0
:101894001434003400340034003407341E3400346B
:1018A4000034003400340134003083120313A500E3
:1018B4000030A6000030A7006A08303EA5002F3093
:1018C400A6003530A7000E30F60002300A128A1145
:1018D4004D270A128A152530F7000030F8000A1245
:1018E4008A152D270A128A150800F200721C7B2C17
:1018F4007C2C802C831203130816832C831203136D
:101904000812F21C862C872C892C88168A2C8812A3
:10191400721D8D2C8E2C902C0817912C0813F21DFF
:10192400942C952C972C8817982C881308007208EF
:10193400043EF40073080318013E003EF5007408E9
:1019440084008317751C83130008031DAA2CAB2C79
:10195400AC2CBA2C7208043EF40073080318013E40
:10196400003EF500740884008317751C83138001FE
:101974000800831203133808BA00CD2C3608A900D6
:101984003708AA003A30AB003908AC000A128A11B1
:1019940044210A128A15831203133A0884000A1296
:1019A4008A1113240A128A15003A031DDA2CDB2C3F
:1019B400C02CB601B70108003D3083120313C000E8
:1019C4003B08C1000030C200C301C401CA01CB01FD
:1019D4004130B6000030B7003C08B8004030B900D0
:1019E4000A128A15BB240A128A15831203134308A8
:1019F4003B07BF003F0884008313800108008B1C51
:101A0400042D052D0D2D8B100330FB0002308312A5
:101A14000313ED001E2D831203130C1C122D132D22
:101A24001E2D0C10DC308E000B308F000130DC07D3
:101A34000318DD0A0030DD0771088A00700E830088
:101A4400FE0E7E0E0900F5007508F400F40DF40D89
:101A5400F40D831203131F087406C73974069F001C
:101A64000630F400F40B342D0000831203131F1905
:101A74003C2D3D2D372D1F151F19412D422D3E2D77
:101A84001E08F300831603131E08F200080000303A
:101A94000A128A1525250A128A157308831203135C
:101AA400E3007208E2006308B5006208B400003085
:101AB400B600B700FF30B8000330B9000030BA00F8
:101AC400BB006430BC000030BD000A128A115420EF
:101AD4000A128A15831203133508E3003408E2005E
:101AE400080001300A128A1525250A128A1573087E
:101AF40083120313DF007208DE005F08B5005E087E
:101B0400B4000030B600B700FF30B8000330B900AD
:101B14000030BA00BB00F430BC000130BD000A1232
:101B24008A1154200A128A15831203133508DF0020
:101B34003408DE000800831203138618A22DA32D97
:101B4400AD2D69080319A72DA82DAD2D0A128A15EC
:101B540087230A128A15831203130619B22DB32D93
:101B6400BD2D68080319B72DB82DBD2D0A128A158D
:101B740095230A128A1583120313060C0139E9000E
:101B8400060CF200720C0139E80008000A128A15EA
:101B9400B9270A128A15E32D0A128A15D5230A12C7
:101BA4008A15831203130711FB2D0A128A15E823E1
:101BB4000A128A15FB2D0A128A15D5230A128A15D0
:101BC400FB2D7B08F600F701F61BF7037708003AB4
:101BD4000319ED2DDD2D7608003A0319DD2D013AA8
:101BE4000319FB2D033A0319D72D013A0319CE2DFE
:101BF400DD2D0800F6007608F4000F30F4057608B1
:101C0400F500F030F5058312031308157508F30089
:101C140004300310F30CFF3E031D0B2E73080A124D
:101C24008A1577240A128A158312031388150D3036
:101C3400F300F30B1B2E83120313881174080A128A
:101C44008A1577240A128A158312031388150D3016
:101C5400F300F30B2B2E8312031388110800720870
:101C6400043EF40073080318013E003EF5007408B6
:101C740084008317751C831300080319422E432E16
:101C8400442E672E7208023EF40073080318013EC6
:101C9400003EF500740884008317751C83138312B7
:101CA40003135C088000840A5D0880007208043E07
:101CB400F40073080318013E003EF5007408840024
:101CC4008317751C83130130800008000A128A15DB
:101CD4009D250A128A158C2E0A128A15A4260A1228
:101CE4008A159F2E0A128A1573270A128A159F2EA7
:101CF4000A128A1171250A128A159F2E0A128A1154
:101D040006250A128A159F2E0A128A1139260A12EA
:101D14008A159F2E831203136A08013A03196E2E43
:101D2400033A0319742E013A03197A2E073A031958
:101D3400802E013A0319862E9F2E831203136A08FC
:101D4400E50008007B08831203136E06031DAB2E07
:101D5400AC2EB32E65086A06031DB12EB22EB32E27
:101D6400E72E7B08EE000A128A156D230A128A15E3
:101D74000230F60001300A128A114D270A128A1520
:101D84001030F7008030F8000A128A152D270A1245
:101D94008A150630F60002300A128A114D270A12FB
:101DA4008A157B08C73E840083130008F7000030BF
:101DB400031D8030F8000A128A152D270A128A158D
:101DC4000A128A1556240A128A1508000230831250
:101DD40003136D06031DEF2EF02EF92E0A128A1539
:101DE40022240A128A158312031307112C2F02309E
:101DF4007B060319FE2EFF2E052F03307B06031DE1
:101E0400042F052F0B2F0A128A1522240A128A1571
:101E14002C2F7708803AFF0080307F02031D142F97
:101E24001F3076020318172F182F1E2F0A128A1537
:101E34000E240A128A152C2F7708803AFF0080306E
:101E44007F02031D272F32307602031C2A2F2B2FEB
:101E54002C2F052F080083120313A301A401562F6E
:101E640023087707A1007808A0000318A00AA31F7D
:101E74003C2FA003831203132008A2002208FF00B2
:101E8400210884000A128A1109240A128A150A12E6
:101E94008A15FC250A128A15013083120313A3073D
:101EA4000318A40A0030A40723087707A1007808C0
:101EB400A0000318A00AA31F602FA003831203131A
:101EC4002008A2002208FF00210884000A128A11B7
:101ED40009240A128A15003A031D712F722F322F1A
:101EE4000800831203136D086C06031D7A2F7B2FE1
:101EF400822F65086A06031D802F812F822FB82F39
:101F04006D08EC000A128A156D230A128A15023034
:101F1400F60001300A128A114D270A128A15383048
:101F2400F7008030F8000A128A152D270A128A1544
:101F34000430F60002300A128A114D270A128A155B
:101F4400831203136D08CB3E840083130008F7004B
:101F54000030031D8030F8000A128A152D270A125A
:101F64008A150A128A1556240A128A150800831241
:101F74000313070EF200F20C720C0139F300070D83
:101F8400070D0139F40003307B06031DCA2FCB2F44
:101F9400CE2F0330FB00FF2F7303031DD22FD32F4B
:101FA400D92F7408031DD72FD82FD92FCB2F7308FF
:101FB400031DDD2FDE2FE62F7403031DE22FE32F15
:101FC400E62F0130FB00FF2F7303031DEA2FEB2FD5
:101FD400F22F7403031DEF2FF02FF22FFB01FF2FBD
:101FE4007308031DF62FF72FFF2F7408031DFB2F13
:0C1FF400FC2FFF2F0230FB00FF2F080025
:02400E00763FFB
:00000001FF
