:020000040000FA
:100000000A128A110C280800FE00030EF0000A08EC
:10001000F1000A128A15E92C0A128A110F2883139B
:10002000E630FD000B30FE00FB30FF00C7308400DF
:100030000A128A15A9230A128A116F30FD000A30AC
:10004000FE00EC30FF00663084000A128A15A923F6
:100050000A128A110A128A11FF270A128A11FB005A
:10006000A0308400C7300A128A15E4220A128A11CD
:100070005C30840066300A128A15E4220A128A1162
:10008000FA0183010A128A11332AFF0000308A0024
:100090007F0882074A280A128A15DC2A0A128A1562
:1000A0005C2B0A128A15F52A831203133608BE0048
:1000B0003708BF000030BF1BFF30C000C100380848
:1000C000C2003908C3000030C31BFF30C400C500A4
:1000D0003E08C2023F08031C3F0F6F287028C3026E
:1000E0004008031C400F75287628C4024108031CF1
:1000F000410F7B287C28C5024508D1004408D00068
:100100004308CF004208CE00510850044F044E046B
:10011000031D8B288C2896283A08B4003B08B500AC
:100120000030B51BFF30B600B70043293A08BE00C7
:100130003B08BF000030BF1BFF30C000C1003C08BF
:10014000C2003D08C3000030C31BFF30C400C5001F
:100150003E08C2023F08031C3F0FAF28B028C3026D
:100160004008031C400FB528B628C4024108031CF0
:10017000410FBB28BC28C5024508C9004408C80077
:100180004308C7004208C6003608BE003708BF0053
:100190000030BF1BFF30C000C1003408C20035086A
:1001A000C3000030C31BFF30C400C5003E08C202BC
:1001B0003F08031C3F0FDD28DE28C3024008031C54
:1001C000400FE328E428C4024108031C410FE9283A
:1001D000EA28C5024508CD004408CC004308CB00FE
:1001E0004208CA003A08BE003B08BF000030BF1BEF
:1001F000FF30C000C1005108A8005008A7004F08F8
:10020000A6004E08A5004D08F5004C08F4004B0868
:10021000F3004A08F2004908F9004808F8004708C6
:10022000F7004608F6000A128A11B7270A128A1147
:10023000750883120313AC007408AB007308AA009E
:100240007208A9000A128A117A230A128A118312EB
:1002500003132508BE0726080318260F3029312965
:10026000BF0727080318270F36293729C007280892
:100270000318280AC1074108B7004008B6003F0824
:10028000B5003E08B4000800831203132B08840055
:100290008313000884000A128A111D240A128A118D
:1002A000253A031D54295529192A2B0884000130A9
:1002B000800783160313C301C401003083120313A4
:1002C000E400FF3083160313C500FF30C60083121D
:1002D00003132B0884000008B000300884000A12C1
:1002E0008A111D240A128A11643A0319782979297E
:1002F0008529300884000A128A111D240A128A11E5
:10030000693A031D84298529112A2C0884000008D4
:10031000FF00023080077F0884000008B100840AD3
:100320000008B2002B0884003008013E8000203015
:10033000B500B21B9C299E2901309F290030AF00D7
:100340000130B5023508A03E84000A30F2000030CA
:10035000F3003208F5003108F4000A128A1112275E
:100360000A128A117308F9007208F8000A128A1535
:100370006C230A128A117808303E831380000A30F9
:10038000F2000030F300831203133208F500310845
:10039000F4000A128A11F2250A128A1173088312D4
:1003A0000313B2007208B100310832040319D929CD
:1003B000DA29DF293508031DDE29DF29A0293508C0
:1003C0000319E329E4290A2A2F080319E829E9294E
:1003D0000A2A0130B5023508A03E84002D3083136F
:1003E00080000A2A3508A03E840083130008AD006F
:1003F000AE012D08F2002E08F3002908F4002A08A7
:10040000F5000A128A11DA220A128A1101308312C7
:100410000313B50720303506031D0F2A102AF229D1
:10042000322A831203132B088400013083138007C0
:10043000322A2B088400000884000A128A111D2425
:100440000A128A11AD00AE012D08F2002E08F30049
:100450002908F4002A08F5000A128A11DA220A1281
:100460008A11112A0800FF30F200F301F401FF3075
:100470000A128A154D230A128A11831203130714D4
:1004800087140716071587150A128A15CC220A1237
:100490008A110A128A15D4220A128A110A128A159E
:1004A000FF220A128A110A128A150A230A128A11D5
:1004B0000A128A11B5260A128A110A128A155C23B9
:1004C0000A128A11D430F2000030F3000A128A15A1
:1004D000EF250A128A1164007A1D6F2A702A762A83
:1004E0000A128A15B6270A128A116B2A0A128A156D
:1004F0008F250A128A11831203136308F70062081A
:10050000F6000A128A1562260A128A110A128A1540
:1005100026260A128A11E03083120313D20000301B
:10052000D3000A128A11A7240A128A11DA30831220
:100530000313D2000030D3000A128A11A7240A1232
:100540008A11D43083120313D2000030D3000A1270
:100550008A11A7240A128A11831203135F08803AB2
:10056000FF0083307F02031DB72A84305E02031C24
:10057000BA2ABB2ABF2A831203138711C22A831205
:10058000031387156108803AFF0080307F02031D46
:10059000CB2A1E306002031CCE2ACF2AD32A831214
:1005A000031307126B2A8312031307166B2A0A120E
:1005B0008A110C28740875040319DF2AE02AE62A38
:1005C00074087504031DE52AE62AED2A72080A124A
:1005D0008A1103200A128A11792B7408093E8312AA
:1005E0000313A00075080318013E003EA100200877
:1005F00084008317211C83130008A200840A0008CA
:10060000A300220823040319062B072B392B740897
:10061000093EA00075080318013E003EA100200815
:1006200084008317211C83130008A200840A000899
:10063000A3007408023EA40075080318013E003EA2
:10064000A500240884008317251C83130008A60036
:10065000840A0008A7002708803AA8002308803AE7
:100660002802031D352B220826020318382B392BAC
:10067000792B740884008317751C83130008831278
:100680000313A000840A0008A1007408023EA2001F
:1006900075080318013E003EA3002208840083175A
:1006A000231C831300082007A5002108A4000318B9
:1006B000A40A801F5C2BA403831203132408A60042
:1006C000250884008317261C831372088000740891
:1006D000023EA00075080318013E003EA10020085C
:1006E00084008317211C831301308007840A0318B8
:1006F000800A080083120313AF01A81F802B812BEF
:100700008E2BA509A609A709A809A50A0319A60AF7
:100710000319A70A0319A80A0130AF00AC1F912BD7
:10072000922B9F2BA909AA09AB09AC09A90A0319A5
:10073000AA0A0319AB0A0319AC0A0130AF0600304C
:10074000B3000030B2000030B1000030B000280823
:100750002704260425040319AE2BAF2BFA2B0130F6
:10076000AE00BD2B0130AD000310A50DA60DA70DE9
:10077000A80DAD0BB42B0130AE07A81FC02BC12BA9
:10078000B22B0130AD000310B00DB10DB20DB30DA1
:10079000AD0BC32B28082C02031DD82B27082B02D6
:1007A000031DD82B26082A02031DD82B2508290251
:1007B000031CDB2BDC2BEB2B2508A9022608031CD2
:1007C000260FAA022708031C270FAB022808031CC8
:1007D000280FAC02301401300310A80CA70CA60C93
:1007E000A50CFF3E031DEC2B0130AE02031DF92BBF
:1007F000FA2BC12B2F080319FE2BFF2B0A2CB00953
:10080000B109B209B309B00A0319B10A0319B20A4E
:100810000319B30A3308A8003208A7003108A6005C
:100820003008A5000800FF1B1D2C83137F188317B9
:100830000008840A0319FF0A080004308A0004082B
:10084000840A820700344C3455345A3420344134FD
:1008500052345434493446344934433449344134AD
:100860004C340034453453345434413444344F34DC
:100870002034543441344E345134553445340034EA
:10088000543445344D345034453452344134543466
:100890005534523441343A34003455344D344934AB
:1008A0004434413444344534203453344F344C348C
:1008B0004F3400344934523452344934473441348B
:1008C000433441344F343A3400344434453453349F
:1008D0004C34493447344134443441340034453491
:1008E0004D3445345234473445344E34433459340E
:1008F0000034533454344134543445342134213495
:10090000003443344834453449344F340034563489
:1009100041345A3449344F3400344534523452341B
:100920004F34523400344D34453449344F3400345C
:100930004534523452344F3400344F344634463404
:1009400000344F344E340034253464340034831280
:1009500003135208043ED40053080318013E003E1E
:10096000D500540884008317551C83130008031D09
:10097000BA2CBB2CBC2C212D5208023ED4005308AB
:100980000318013E003ED500540884008317551C0F
:1009900083130008D600840A0008D70056085C02BA
:1009A000D8005708031C570A5D02D900520884007A
:1009B0008317531C83130008D400840A0008D50051
:1009C00055085902031DE62C54085802031CE92C53
:1009D000EA2C212D5208023ED40053080318013E90
:1009E000003ED500540884008317551C83135C080F
:1009F0008000840A5D0880005208053ED400530838
:100A00000318013E003ED500540884008317551C8E
:100A10008313000803190D2D0E2D212D5208053EBC
:100A2000D40053080318013E003ED500540884004A
:100A30008317551C831300080A128A1145200A12D5
:100A40008A110800831603135108831203136106E9
:100A5000031D302D83160313500883120313600601
:100A6000031D332D342D3B2D65086A06031D392DDA
:100A70003A2D3B2D8C2D610883160313D100831270
:100A80000313600883160313D0000A128A15172374
:100A90000A128A110330F60001300A128A116927FE
:100AA0000A128A111E30F7008030F8000A128A15E7
:100AB000E3260A128A110730F60002300A128A1160
:100AC00069270A128A114C3083120313BB0082304B
:100AD000BC006108BE006008BD000A128A15A2248D
:100AE0000A128A114C30F7000030F8000A128A15F9
:100AF000E3260A128A11DF300A128A15BA250A1271
:100B00008A1143300A128A15BA250A128A110A126A
:100B10008A151A240A128A1108008316031353082F
:100B2000831203136306031D9B2D831603135208C0
:100B3000831203136206031D9E2D9F2DA62D6508AB
:100B40006A06031DA42DA52DA62DF12D630883167D
:100B50000313D30083120313620883160313D20016
:100B60000A128A1517230A128A110230F600013080
:100B70000A128A1169270A128A112B30F700803075
:100B8000F8000A128A15E3260A128A110630F600C6
:100B900002300A128A1169270A128A114C30831214
:100BA0000313BB008230BC006308BE006208BD00B6
:100BB0000A128A15A2240A128A114C30F70000305A
:100BC000F8000A128A15E3260A128A1125300A1241
:100BD0008A15BA250A128A110A128A151A240A12CB
:100BE0008A110800F701F31FF62DF72DFE2DF209EB
:100BF000F309F20A0319F30A0130F700F51F012E79
:100C0000022E092EF409F509F40A0319F50A013038
:100C1000F706F801F901720873040319102E112E5A
:100C2000462E0130F6001D2E01300310F20DF30D9B
:100C3000FF3E031D152E0130F607F31F202E212E37
:100C4000142E01300310F80DF90DFF3E031D222E66
:100C500073087502031D2E2E72087402031C312EB8
:100C6000322E392E7208F4027308031CF503F502C4
:100C7000781401300310F30CF20CFF3E031D3A2EE2
:100C80000130F602031D452E462E212E770803194A
:100C90004A2E4B2E502EF809F909F80A0319F90AC1
:100CA0007908F3007808F2000800831603134F0850
:100CB000831203135F06031D632E831603134E086E
:100CC000831203135E06031D662E672E6E2E6508C3
:100CD0006A06031D6C2E6D2E6E2EB42E5F088316D1
:100CE0000313CF00831203135E0883160313CE0091
:100CF0000A128A1517230A128A110230F6000130EF
:100D00000A128A1169270A128A110130F70080300D
:100D1000F8000A128A15E3260A128A110430F60036
:100D200002300A128A1169270A128A1183120313E8
:100D300087199B2E9C2EA62E4630F7008030F80097
:100D40000A128A15E3260A128A11AF2E4330F700E1
:100D50008030F8000A128A15E3260A128A110A1254
:100D60008A151A240A128A11080000300A128A15FC
:100D70003B240A128A111A30F700F830F600F60BFD
:100D8000BF2EF70BBF2E000003300A128A15E12395
:100D90000A128A110730F7007D30F600F60BCE2ECE
:100DA000F70BCE2E03300A128A15E1230A128A119C
:100DB0000F30F7004730F600F60BDC2EF70BDC2E79
:100DC000E12E03300A128A15E1230A128A11023039
:100DD0000A128A15E1230A128A1102300A128A15B0
:100DE000E1230A128A1108300A128A15E1230A1235
:100DF0008A1100300A128A15E1230A128A110C3076
:100E00000A128A15E1230A128A1100300A128A1581
:100E1000E1230A128A1106300A128A15E1230A1206
:100E20008A110800F701F51F162F172F1E2FF4093E
:100E3000F509F40A0319F50A0130F700F31F212F11
:100E4000222F272FF209F309F20A0319F30A720875
:100E5000730403192C2F2D2F5A2F0130F600392F30
:100E600001300310F20DF30DFF3E031D312F013051
:100E7000F607F31F3C2F3D2F302F73087502031D1B
:100E8000432F72087402031C462F472F4D2F720800
:100E9000F4027308031CF503F50201300310F30C90
:100EA000F20CFF3E031D4E2F0130F602031D592F99
:100EB0005A2F3D2F770803195E2F5F2F642FF409F7
:100EC000F509F40A0319F50A7508F3007408F2002D
:100ED000080083120313A0002003031D702F712F3D
:100EE000912F76087F3EA3002308F70004300310FB
:100EF000F70CFF3E031D772F7708A1002308A200FF
:100F00000F30A20521080A128A15E1230A128A115C
:100F10008312031322080A128A15E1230A128A1186
:100F2000B62F02302006031D962F972FB62F760876
:100F3000BF3EA3002308F70004300310F70CFF3E68
:100F4000031D9D2F7708A1002308A2000F30A205E2
:100F500021080A128A15E1230A128A118312031347
:100F600022080A128A15E1230A128A1108000030A9
:100F700083120313A4000030A3000030A20000304D
:100F8000A100721CC42FC52FDC2F7608A10777089B
:100F900003110318013E0319CE2FA207780803118D
:100FA0000318013E0319D52FA3077908031103186D
:100FB000013E0319DC2FA4070130A0000310F60D39
:100FC000F70DF80DF90DA00BDE2F01300310F50C15
:100FD000F40CF30CF20CFF3E031DE62F75087404AD
:100FE00073047204031DF52FF62FC12F2408F5009A
:100FF0002308F4002208F3002108F200080001345D
:1015980083160313811501148114011564000800D2
:1015A8008B170B168316031301170B170C1408005F
:1015B8000A128A157F230A128A150330FB000800D5
:1015C80064008001840A0406031900340406E52A2D
:1015D80032341E340134013401340534FF3401340B
:1015E800FF340A128A15CC230A128A150230831294
:1015F8000313ED00080083120313901010169016C1
:101608000B308F00DB308E00101408008316031394
:101618001F109F101F119F119F17831203131F1371
:101628009F131F14080000300A128A15E1230A12BA
:101638008A1501300A128A15E1230A128A15080050
:1016480002300A128A15C5240A128A1573088312F1
:101658000313DF007208DE00080002308312031350
:101668006A020318382B392B3C2B0530EA003E2B35
:101678000130EA0208000530831203136A02031CD2
:10168800462B472B4A2B0130EA004C2B0130EA0746
:101698000800F50075088316031385007208860094
:1016A80073088700740888008113071787170800D4
:1016B8000A128A153A250A128A150A128A1510255D
:1016C8000A128A150A128A1524230A128A15080092
:1016D800F91B6F2B702B712B7E2B78098312031348
:1016E800A0007909A100A00A0319A10A2008F8009E
:1016F8002108F9000800FA18822B832B842B912BE0
:10170800FA10831203130714E030F2000030F300DC
:101718000A128A155D240A128A150800FA1C952BEC
:10172800962B972BA42BFA14831203130710E0307F
:10173800F2000030F3000A128A15EF250A128A1502
:1017480008007E088A007F0882000A128A15A523ED
:101758000A128A158000840A04087D0603190034D9
:10176800FF0A0319FE0AA92B7A1CBB2BBC2BBD2B25
:10177800CB2B831203138710ED017A14DA30F200B1
:101788000030F3000A128A15EF250A128A1508009C
:101798007A18CF2BD02BD12BE02B8312031387146D
:1017A8007A100130ED00DA30F2000030F3000A124E
:1017B8008A155D240A128A150800F500831203139E
:1017C800081175080A128A153B240A128A15831211
:1017D800031388150630F4003030F300F30BF22BB6
:1017E800F40BF22B000083120313881108005F34F6
:1017F8007134653476347F347B346B34FF34FF3492
:10180800FF34FF34FF34FF34023400340034003432
:101818000034043414340034003400340034073401
:101828001E34003400340034003401340030831294
:101838000313A5000030A6000030A7006A08303E58
:10184800A5002F30A6003530A7000E30F600023074
:101858000A128A1169270A128A152530F700003002
:10186800F8000A128A15E3260A128A150800F200FF
:10187800721C3F2C402C442C831203130816472C4F
:10188800831203130812F21C4A2C4B2C4D2C881679
:101898004E2C8812721D512C522C542C0817552C82
:1018A8000813F21D582C592C5B2C88175C2C8813B4
:1018B80008007208043EF40073080318013E003E55
:1018C800F500740884008317751C83130008031D32
:1018D8006E2C6F2C702C7E2C7208043EF40073085A
:1018E8000318013E003EF500740884008317751C38
:1018F800831380010800831203133808BA00912C5F
:101908003608A9003708AA003A30AB003908AC00FD
:101918000A128A1144210A128A15831203133A08FB
:1019280084000A128A111D240A128A15003A031D1E
:101938009E2C9F2C842CB601B70108003D308312E1
:101948000313C0003B08C1000030C200C301C4013A
:10195800CA01CB014130B6000030B7003C08B800DE
:101968004030B9000A128A157F240A128A15831298
:10197800031343083B07BF003F088400831380011B
:101988000800F5007508F400F40DF40DF40D831249
:1019980003131F087406C73974069F000630F40045
:1019A800F40BD42C0000831203131F19DC2CDD2C3C
:1019B800D72C1F151F19E12CE22CDE2C1E08F30072
:1019C800831603131E08F20008008B1CEC2CED2C68
:1019D800F82C8B107A158312031307148714071633
:1019E800071587150711092D831203130C1CFD2CED
:1019F800FE2C092D0C10DC308E000B308F000130CE
:101A0800DC070318DD0A0030DD0771088A00700E54
:101A18008300FE0E7E0E090000300A128A15C524C6
:101A28000A128A15730883120313E3007208E2008E
:101A38006308B5006208B4000030B600B700FF3094
:101A4800B8000330B9000030BA00BB006430BC00F5
:101A58000030BD000A128A1154200A128A15831216
:101A680003133508E3003408E200080001300A12C5
:101A78008A15C5240A128A15730883120313E10014
:101A88007208E0006108B5006008B4000030B600D4
:101A9800B700FF30B8000330B9000030BA00BB000F
:101AA800F430BC000130BD000A128A1154200A1219
:101AB8008A15831203133508E1003408E000080092
:101AC800831203138618692D6A2D742D690803196A
:101AD8006E2D6F2D742D0A128A1531230A128A155C
:101AE800831203130619792D7A2D842D680803199A
:101AF8007E2D7F2D842D0A128A153F230A128A15FE
:101B080083120313060C0139E900060CF200720C6B
:101B18000139E80008000A128A156F270A128A1587
:101B2800A12D0A128A157F230A128A15B92D0A12C5
:101B38008A1592230A128A15B92D7B08F600F70137
:101B4800F61BF7037708003A0319AB2D952D760895
:101B5800003A0319952D013A0319B92D033A0319CF
:101B68009B2D013A0319952D952D0800F60076084E
:101B7800F4000F30F4057608F500F030F50583120F
:101B8800031308157508F30004300310F30CFF3E27
:101B9800031DC92D73080A128A153B240A128A15D7
:101BA8008312031388150D30F300F30BD92D83121C
:101BB8000313881174080A128A153B240A128A151D
:101BC8008312031388150D30F300F30BE92D8312EC
:101BD8000313881108007208043EF4007308031800
:101BE800013E003EF500740884008317751C8313BA
:101BF80000080319002E012E022E252E7208023E1F
:101C0800F40073080318013E003EF50074088400D0
:101C18008317751C8313831203135C088000840ADE
:101C28005D0880007208043EF40073080318013E42
:101C3800003EF500740884008317751C8313013077
:101C4800800008000A128A1564250A128A154A2E8D
:101C58000A128A159F260A128A155D2E0A128A15FB
:101C680029270A128A155D2E0A128A118D250A1251
:101C78008A155D2E0A128A1122250A128A155D2EEE
:101C88000A128A1155260A128A155D2E8312031329
:101C98006A08013A03192C2E033A0319322E013A25
:101CA8000319382E073A03193E2E013A0319442E18
:101CB8005D2E831203136A08E500080002308312C0
:101CC80003136D06031D692E6A2E702E0A128A15DB
:101CD800CC230A128A159E2E02307B060319752E14
:101CE800762E6A2E03307B06031D7B2E7C2E7D2EDE
:101CF8006A2E7708803AFF0080307F02031D862E07
:101D08001F3076020318892E8A2E902E0A128A1501
:101D1800B8230A128A159E2E7708803AFF00803071
:101D28007F02031D992E32307602031C9C2E9D2EB5
:101D38009E2E6A2E08007B08831203136E06031D6D
:101D4800A62EA72EAE2E65086A06031DAC2EAD2E54
:101D5800AE2EE22E7B08EE000A128A1517230A120D
:101D68008A150230F60001300A128A1169270A1210
:101D78008A151030F7008030F8000A128A15E32619
:101D88000A128A150630F60002300A128A116927EB
:101D98000A128A157B08C73E840083130008F700DF
:101DA8000030031D8030F8000A128A15E3260A1253
:101DB8008A150A128A151A240A128A15080083122B
:101DC8000313A301A4010C2F23087707A1007808A7
:101DD800A0000318A00AA31FF22EA0038312031366
:101DE8002008A2002208FF00210884000A128A1194
:101DF80013240A128A150A128A15BA250A128A1594
:101E0800013083120313A3070318A40A0030A407A0
:101E180023087707A1007808A0000318A00AA31FC9
:101E2800162FA003831203132008A2002208FF0024
:101E3800210884000A128A1113240A128A15003A0A
:101E4800031D272F282FE82E0800831203136D087F
:101E58006C06031D302F312F382F65086A06031DC5
:101E6800362F372F382F6E2F6D08EC000A128A157F
:101E780017230A128A150230F60001300A128A1155
:101E880069270A128A153830F7008030F8000A12DC
:101E98008A15E3260A128A150430F60002300A125F
:101EA8008A1169270A128A15831203136D08CB3E1B
:101EB800840083130008F7000030031D8030F80009
:101EC8000A128A15E3260A128A150A128A151A2492
:101ED8000A128A15080083120313070EF200F20C87
:101EE800720C0139F300070D070D0139F4000330B6
:101EF8007B06031D802F812F842F0330FB00B52F15
:101F08007303031D882F892F8F2F7408031D8D2FAE
:101F18008E2F8F2F812F7308031D932F942F9C2FA3
:101F28007403031D982F992F9C2F0130FB00B52FA8
:101F38007303031DA02FA12FA82F7403031DA52F22
:101F4800A62FA82FFB01B52F7308031DAC2FAD2FAB
:101F5800B52F7408031DB12FB22FB52F0230FB0027
:101F6800B52F08000A128A1517230A128A15053098
:101F7800F60001300A128A1169270A128A154D30B3
:101F8800F7008030F8000A128A15E3260A128A152B
:101F98000630F60002300A128A1169270A128A15D9
:101FA8005730F7008030F8000A128A15E3260A1223
:101FB8008A15043083120313A7008E30A60011304F
:101FC800A500A50BE52FA60BE52FA70BE52FEC2FFA
:101FD8000A128A1517230A128A150330831203136B
:101FE800A7008A30A6005530A500A50BF92FA60B2F
:081FF800F92FA70BF92F0800D7
:02400E00763FFB
:00000001FF
