:020000040000FA
:100000000A128A110E280800FE00030EF8000408E8
:10001000F9000A08FA000A128A116C2E0A128A11D3
:1000200011288313D630FD000530FE00D530FF00C7
:10003000C63084000A128A11D6270A128A116E303D
:10004000FD000F30FE00AC30FF00693084000A1262
:100050008A11D6270A128A110A128A15AA270A12A9
:100060008A11FC000A128A15AB270A128A11FD00B8
:10007000A0308400C6300A128A11F8270A128A11A9
:10008000EE01EF01FB0183010A128A119C2D8312FC
:1000900003132F0884008313000884000A128A11B6
:1000A0000A260A128A11253A031D57285828B02912
:1000B0002F0884000130800783160313C001C1019B
:1000C000003083120313EE00FF3083160313C200C7
:1000D000FF30C300831203132F0884000008B70009
:1000E000370884000A128A110A260A128A11643A11
:1000F00003197B287C288828370884000A128A1173
:100100000A260A128A11693A031D872888281A29A3
:10011000300884008317311C83130008FF0002306D
:1001200080077F08840083130008B800840A000851
:10013000B9002F0884003708013E80002030BC0041
:10014000B91BA328A5280130A6280030B60001302D
:10015000BC023C08A03E84000A30A0000030A10090
:100160003908A3003808A2000A128A119E230A1235
:100170008A11831203132108A7002008A6000A127F
:100180008A11E5270A128A11831203132608303ECA
:10019000831380000A30A0000030A1003908A300BA
:1001A0003808A2000A128A11D6220A128A11831272
:1001B00003132108B9002008B800380839040319CE
:1001C000E228E328E8283C08031DE728E828A728B8
:1001D0003C080319EC28ED28132936080319F128E7
:1001E000F22813290130BC023C08A03E84002D30C7
:1001F0008313800013293C08A03E84008313000869
:10020000B200B3013208A0003308A1002D08A200FB
:100210002E08A3000A128A11CA210A128A1101307B
:1002200083120313BC0720303C06031D182919292B
:10023000FB28C929B6012F088400000884000A128F
:100240008A110A260A128A11733A031D28292929BC
:1002500030292F088400013080070130B600612961
:100260002F088400000884000A128A110A260A1244
:100270008A116C3A031D3D293E2961292F0884000B
:100280000008013E84000A128A110A260A128A1105
:100290006C3A031D4C294D2961292F088400000860
:1002A000023E84000A128A110A260A128A11733A3F
:1002B000031D5B295C2961292F0884000330800716
:1002C0002D293608031965296629A82930088400D4
:1002D0008317311C83130008FF00023080077F085A
:1002E000840083130008B400840A00088403B50066
:1002F00099293508FF00340884000A128A11002663
:100300000A128A11B200B3013208A0003308A1001A
:100310002D08A2002E08A3000A128A11CA210A126F
:100320008A11013083120313B4070318B50A003091
:10033000B5073508FF00340884000A128A11002628
:100340000A128A11003A031DA629A7297929C92969
:10035000831203132F088400013083138007C929F7
:100360002F088400000884000A128A110A260A1243
:100370008A11B200B3013208A0003308A1002D0891
:10038000A2002E08A3000A128A11CA210A128A1199
:10039000A829080083120313220823040319D12972
:1003A000D229D82922082304031DD729D829DF29D7
:1003B00020080A128A1103200A128A11692A2208C7
:1003C000093EA40023080318013E003EA5002408AE
:1003D00084008317251C83130008A600840A0008E4
:1003E000A700260827040319F629F729292A220835
:1003F000093EA40023080318013E003EA50024087E
:1004000084008317251C83130008A600840A0008B3
:10041000A7002208023EA80023080318013E003E60
:10042000A900280884008317291C83130008AA0048
:10043000840A0008AB002B08803AAC002708803AF9
:100440002C02031D252A26082A020318282A292AF5
:10045000692A83120313220884008317231C831341
:100460000008A400840A0008A5002208023EA60095
:1004700023080318013E003EA700260884008317C6
:10048000271C831300082407A9002508A8000318C7
:10049000A80A801F4C2AA803831203132808AA0065
:1004A0002908840083172A1C83132008800022084F
:1004B000023EA40023080318013E003EA5002408C4
:1004C00084008317251C831301308007840A0318D6
:1004D000800A08007008043EF20071080318013E0B
:1004E000003EF300720884008317731C8313000816
:1004F000031D7B2A7C2A7D2AD52A70088400831755
:10050000711C83130008F200840A0008F3007008CD
:10051000023EF40071080318013E003EF500740825
:1005200084008317751C83130008F600840A0008F2
:10053000F70073087702031D9F2A72087602031CD6
:10054000A22AA32AC32A7008053EF20071080318E4
:10055000013E003EF300720884008317731C83136E
:10056000013080007008023EF20071080318013E5D
:10057000003EF300720884008317731C831380010C
:10058000840A8001D52A7008023EF200710803181F
:10059000013E003EF300720884008317731C83132E
:1005A00001308007840A0318800A080083120313AD
:1005B000A501A11FDC2ADD2AE42AA009A109A00ABD
:1005C0000319A10A0130A500A31FE72AE82AEF2A90
:1005D000A209A309A20A0319A30A0130A506A601CC
:1005E000A701200821040319F62AF72A2C2B013031
:1005F000A400032B01300310A00DA10DFF3E031D2D
:10060000FB2A0130A407A11F062B072BFA2A013071
:100610000310A60DA70DFF3E031D082B2108230282
:10062000031D142B20082202031C172B182B1F2B31
:100630002008A2022108031CA303A30226140130F0
:100640000310A10CA00CFF3E031D202B0130A402BF
:10065000031D2B2B2C2B072B25080319302B312B9B
:10066000362BA609A709A60A0319A70A2708A1007D
:100670002608A000080000300A128A1179270A1201
:100680008A111A3083120313A500F730A400A40BBB
:10069000472BA50B472B4C2B03300A128A11B62788
:1006A0000A128A11073083120313A5007C30A400BC
:1006B000A40B582BA50B582B000003300A128A11EB
:1006C000B6270A128A110F3083120313A500473090
:1006D000A400A40B692BA50B692B03300A128A1105
:1006E000B6270A128A1102300A128A11B6270A1294
:1006F0008A1102300A128A11B6270A128A110830AA
:100700000A128A11B6270A128A1100300A128A11B7
:10071000B6270A128A110C300A128A11B6270A1259
:100720008A1100300A128A11B6270A128A1106307D
:100730000A128A11B6270A128A11080083120313BB
:10074000A501A31FA42BA52BAC2BA209A309A20AC8
:100750000319A30A0130A500A11FAF2BB02BB52BA5
:10076000A009A109A00A0319A10A2008210403195C
:10077000BA2BBB2BE82B0130A400C72B0130031090
:10078000A00DA10DFF3E031DBF2B0130A407A11F2B
:10079000CA2BCB2BBE2B21082302031DD12B2008F3
:1007A0002202031CD42BD52BDB2B2008A20221080C
:1007B000031CA303A30201300310A10CA00CFF3EF5
:1007C000031DDC2B0130A402031DE72BE82BCB2BF0
:1007D00025080319EC2BED2BF22BA209A309A20A81
:1007E0000319A30A2308A1002208A000080083120D
:1007F00003136D086C06031DFE2BFF2B002C462CEB
:100800006D08EC000A128A15D8270A128A11831281
:100810000313A401A40A01300A128A1147240A1200
:100820008A11013083120313A5008030A6000A123A
:100830008A11DC240A128A11533083120313C20076
:100840002630C3006D08C63E840083130008C40030
:100850000030031D8030C5000A128A1113270A12C6
:100860008A1183120313A401A40A02300A128A1106
:1008700047240A128A11533083120313A500003053
:10088000A6000A128A11DC240A128A1108008312B7
:100890000313A6002603031D4E2C4F2C6F2C240897
:1008A0007F3EA9002908A50004300310A50CFF3ED7
:1008B000031D552C2508A7002908A8000F30A805FE
:1008C00027080A128A11B6270A128A118312031303
:1008D00028080A128A11B6270A128A11942C0230AB
:1008E0002606031D742C752C942C2408BF3EA900E9
:1008F0002908A50004300310A50CFF3E031D7B2C26
:100900002508A7002908A8000F30A80527080A1203
:100910008A11B6270A128A118312031328080A12B1
:100920008A11B6270A128A11080083120313070ED0
:10093000A000A00C200C0139A100070D070D013902
:10094000A20003306D06031DA62CA72CAA2C033091
:10095000ED00DB2C2103031DAE2CAF2CB52C22089F
:10096000031DB32CB42CB52CA72C2108031DB92CC6
:10097000BA2CC22C2203031DBE2CBF2CC22C01306A
:10098000ED00DB2C2103031DC62CC72CCE2C22032B
:10099000031DCB2CCC2CCE2CED01DB2C2108031D10
:1009A000D22CD32CDB2C2208031DD72CD82CDB2CEB
:1009B0000230ED00DB2C080083120313AA01AB0107
:1009C000052D2A082507A8002608A7000318A70A4E
:1009D000AA1FEB2CA703831203132708A9002908D9
:1009E000FF00280884000A128A1100260A128A11C0
:1009F0000A128A1161250A128A1101308312031327
:100A0000AA070318AB0A0030AB072A082507A8007D
:100A10002608A7000318A70AAA1F0F2DA7038312F1
:100A200003132708A9002908FF00280884000A12D8
:100A30008A1100260A128A11003A031D202D212D49
:100A4000E12C08000A128A1195240A128A11462DF7
:100A50000A128A11F3250A128A118312031307114D
:100A6000602D0A128A15E5270A128A11602D0A12D2
:100A70008A11F3250A128A11602D0A128A11F325B0
:100A80000A128A11831203130711602D83120313B4
:100A90006D08A400A501A41BA5032508003A0319AD
:100AA000522D3D2D2408003A0319372D013A031920
:100AB000602D033A0319312D013A0319282D3D2DDC
:100AC000080083120313A4002408A2000F30A2051B
:100AD0002408A300F030A30508152308A100043062
:100AE0000310A10CFF3E031D702D21080A128A116C
:100AF00079270A128A118312031388150C30831286
:100B00000313A100A10B822D00008312031388118F
:100B100022080A128A1179270A128A1183120313F2
:100B200088150C3083120313A100A10B952D000032
:100B30008312031388110800831203130714871408
:100B4000071607158711FF30A000A101A201FF3091
:100B50000A128A1199270A128A110A128A15B127D4
:100B60000A128A110A128A15B9270A128A110A1260
:100B70008A15C1270A128A110A128A15CC270A126D
:100B80008A110A128A113B230A128A1164000A127E
:100B90008A1122250A128A110A128A11F0260A12D3
:100BA0008A11C62D0A128A110E280D3419341334F5
:100BB0001E3498343A3400340034003400340A349B
:100BC0000034003400340134003404308312031341
:100BD0006A02031CEC2DED2DF02D0130EA00F22D00
:100BE0000130EA070800831203130714CA30A0007B
:100BF0000030A1000A128A1158270A128A1108002F
:100C0000FF1B0A2E83137F1883170008840A031919
:100C1000FF0A080006308A000408840A82070034AC
:100C2000543461346E346B3420345334743461344E
:100C3000743465343A3400344334483445344934E8
:100C40004F340034563441345A3449344F3400342C
:100C50004D34453449344F340034453452345234E1
:100C60004F34003425346434003425347334003474
:100C7000831603135508031D3E2E3F2E402E6B2E68
:100C8000D501831203138618462E472E512E7D0858
:100C900003194B2E4C2E512E0A128A15F2270A12D6
:100CA0008A11831203130619562E572E612E7C08C3
:100CB00003195B2E5C2E612E0A128A11E5250A1299
:100CC0008A1183120313060C0139FD00060CA000E3
:100CD000200C0139FC0008008B1C6F2E702E782E22
:100CE0008B10033083120313ED000230EB00952EBE
:100CF000831203130C1C7D2E7E2E952E0C10FF30BC
:100D00008F0067308E00CA30F0000030F1000A1208
:100D10008A116A220A128A11D030F0000030F100E4
:100D20000A128A116A220A128A117A088A0079083C
:100D30008400780E8300FE0E7E0E09000A128A15CA
:100D4000D8270A128A1183120313A401A40A0130BE
:100D50000A128A1147240A128A115530831203138A
:100D6000C2002330C3006A08D300D4015308C40072
:100D70005408C5000A128A1113270A128A11553025
:100D800083120313A5000030A6000A128A11DC2486
:100D90000A128A110800831203133F08C100DF2ED4
:100DA0003D08AD003E08AE004130AF004008B00045
:100DB0000030B1000A128A1147200A128A118312E8
:100DC0000313410884000A128A110A260A128A11A2
:100DD000003A031DEC2EED2ED02EBD01BE01080001
:100DE0000A128A1138260A128A11022F0A128A114F
:100DF000F7230A128A11122F0A128A119E260A124A
:100E00008A11122F831203136A08013A0319F62E6E
:100E1000033A0319FC2E013A0319FC2E073A031971
:100E2000FC2EFC2E0800443083120313C700420836
:100E3000C8000030C900CA01CB01D101D20148303D
:100E4000BD000030BE004308BF004730C0000A129A
:100E50008A11CB260A128A11831203134A08420709
:100E6000C600460884008313800108008312031320
:100E70002008043EA20021080318013E003EA30002
:100E8000220884008317231C83130130800020086C
:100E9000023EA20021080318013E003EA3002208E2
:100EA00084008317231C83138001840A80010800B7
:100EB000831203132008043EA20021080318013EF8
:100EC000003EA300220884008317231C83138001A3
:100ED0002008023EA20021080318013E003EA300A4
:100EE000220884008317231C83138001840A800155
:100EF000080083120313A000201C7F2F802F822F55
:100F00000816832F0812A01C862F872F892F88167A
:100F10008A2F8812201D8D2F8E2F902F0817912F2A
:100F20000813A01D942F952F972F8817982F88139B
:100F3000080083120313A3002308831603138500FC
:100F400083120313200883160313860083120313EE
:100F500021088316031387008312031322088316C4
:100F600003138800811307178717080083120313E0
:100F7000A300081123080A128A1179270A128A117C
:100F8000831203138815063083120313A2002F3037
:100F9000A100A10BC92FA20BC92FCE2F83120313BF
:100FA000881108007E088A007F0882000A128A11D0
:100FB000D2270A128A118000840A04087D060319C8
:100FC0000034FF0A0319FE0AD62F83120313A71B4E
:100FD000EA2FEB2FEC2FF72F2609A8002709A900ED
:100FE000A80A0319A90A2808A6002908A7000800CA
:100FF00064008001840A0406031900340406F92FF2
:101F540001340134FF3401340134FF340134831675
:101F640003138115011481140115640008008B17F3
:101F74008316031301170B160B170C140800831296
:101F84000313901010169016FF308F0083308E00CC
:101F940010140800831603131F109F101F159F159C
:101FA4009F17831203131F139F13080000300A1294
:101FB4008A11B6270A128A1501300A128A11B62725
:101FC4000A128A150800831203130710CA30A000EE
:101FD4000030A1000A128A1136270A128A15080055
:101FE4000230831203136A020318F92FFA2FFD2F0C
:0C1FF4000430EA00FF2F0130EA02080070
:02400E00763FFB
:00000001FF
