:020000040000FA
:060000000A128A11122809
:10000800FE00030E83120313A0000408A1000A08CF
:10001800A2007F08A3000A128A11FB2D0A128A1176
:1000280015288313DB30FD000730FE00F030FF0099
:10003800D43084000A128A1162270A128A116430A5
:10004800FD000730FE00D530FF00593084000A1249
:100058008A1162270A128A110A128A15F1270A12CE
:100068008A11FB000A128A15F2270A128A11FC006B
:100078000A128A15F3270A128A11FD00A03084009B
:10008800C0300A128A11E0270A128A11E401E50138
:10009800E601E701E801E901EA0183010A128A1190
:1000A800962D5528FF0000308A007F0882075B28BC
:1000B8000A128A15F42F0A128A112C2E831203139E
:1000C800330884008313000884000A128A11682503
:1000D8000A128A11253A031D72287328C329330886
:1000E800840001308007E401E5010030EA00FF30B8
:1000F800E600FF30E700330884000008BB003B0837
:1001080084000A128A1168250A128A11643A0319AE
:100118008E288F289B283B0884000A128A1168259C
:100128000A128A11693A031D9A289B282D29340836
:1001380084008317351C83130008FF0002308007F2
:100148007F08840083130008BC00840A0008BD00EF
:10015800330884003B08013E80002030C000BD1BEE
:10016800B628B8280130B9280030BA000130C002DA
:100178004008A03E84000A30A4000030A5003D08D5
:10018800A7003C08A6000A128A11B4230A128A1191
:10019800831203132508AB002408AA000A128A1147
:1001A80071270A128A11831203132A08303E831317
:1001B80080000A30A4000030A5003D08A7003C08D4
:1001C800A6000A128A11EC220A128A11831203135A
:1001D8002508BD002408BC003C083D040319F52887
:1001E800F628FB284008031DFA28FB28BA284008EF
:1001F8000319FF28002926293A0803190429052983
:1002080026290130C0024008A03E84002D30831307
:10021800800026294008A03E840083130008B60009
:10022800B7013608A4003708A5003108A60032082F
:10023800A7000A128A11DD210A128A1101308312DD
:100248000313C00720304006031D2B292C290E2933
:10025800DC29BA0133088400000884000A128A11D4
:1002680068250A128A11733A031D3B293C29432940
:1002780033088400013080070130BA00742933083C
:100288008400000884000A128A1168250A128A115B
:100298006C3A031D50295129742933088400000839
:1002A800013E84000A128A1168250A128A116C3AE2
:1002B800031D5F2960297429330884000008023E61
:1002C80084000A128A1168250A128A11733A031DDA
:1002D8006E296F2974293308840003308007402968
:1002E8003A08031978297929BB2934088400831727
:1002F800351C83130008FF00023080077F08840044
:1003080083130008B800840A00088403B900AC29E4
:100318003908FF00380884000A128A115E250A127B
:100328008A11B600B7013608A4003708A5003108BD
:10033800A6003208A7000A128A11DD210A128A11C2
:10034800013083120313B8070318B90A0030B9073C
:100358003908FF00380884000A128A115E250A123B
:100368008A11003A031DB929BA298C29DC2983127C
:10037800031333088400013083138007DC29330812
:100388008400000884000A128A1168250A128A115A
:10039800B600B7013608A4003708A5003108A60042
:1003A8003208A7000A128A11DD210A128A11BB2914
:1003B800080083120313260827040319E429E529F2
:1003C800EB2926082704031DEA29EB29F22924082A
:1003D8000A128A11FE270A128A117C2A2608093E67
:1003E800A80027080318013E003EA9002808840039
:1003F8008317291C83130008AA00840A0008AB008D
:100408002A082B040319092A0A2A3C2A2608093E25
:10041800A80027080318013E003EA9002808840008
:100428008317291C83130008AA00840A0008AB005C
:100438002608023EAC0027080318013E003EAD0026
:100448002C08840083172D1C83130008AE00840A2F
:100458000008AF002F08803AB0002B08803A30021D
:10046800031D382A2A082E0203183B2A3C2A7C2A14
:1004780083120313260884008317271C831300089C
:10048800A800840A0008A9002608023EAA00270836
:100498000318013E003EAB002A08840083172B1C7A
:1004A800831300082807AD002908AC000318AC0A1C
:1004B800801F5F2AAC03831203132C08AE002D089B
:1004C800840083172E1C8313240880002608023E0C
:1004D800A80027080318013E003EA9002808840048
:1004E8008317291C831301308007840A0318800AA4
:1004F8000800730884008317741C83130008F50030
:10050800840A0008F6007308023EF700740803180E
:10051800013E003EF800770884008317781C831397
:100528000008F900840A0008FA0076087A02031D18
:100538009F2A75087902031CA22AA32AD92A7308BC
:10054800023EF50074080318013E003EF6007508E7
:1005580084008317761C83138001840A8001730842
:10056800053EF50074080318013E003EF6007508C4
:1005780084008317761C831300080319C42AC52A2C
:10058800EB2A7308053EF50074080318013E003E87
:10059800F600750884008317761C831300080A1276
:1005A8008A1156200A128A11EB2A7308023EF500B6
:1005B80074080318013E003EF6007508840083178E
:1005C800761C831301308007840A0318800A080008
:1005D80083120313A901A51FF22AF32AFA2AA409F0
:1005E800A509A40A0319A50A0130A900A71FFD2A15
:1005F800FE2A052BA609A709A60A0319A70A01308E
:10060800A906AA01AB012408250403190C2B0D2BFC
:10061800422B0130A800192B01300310A40DA50DA1
:10062800FF3E031D112B0130A807A51F1C2B1D2BF6
:10063800102B01300310AA0DAB0DFF3E031D1E2B1E
:1006480025082702031D2A2B24082602031C2D2B0C
:100658002E2B352B2408A6022508031CA703A70266
:100668002A1401300310A50CA40CFF3E031D362BE1
:100678000130A802031D412B422B1D2B2908031909
:10068800462B472B4C2BAA09AB09AA0A0319AB0A1C
:100698002B08A5002A08A400080000300A128A11B5
:1006A80007270A128A111A3083120313A900F73098
:1006B800A800A80B5D2BA90B5D2B622B03300A1237
:1006C8008A1127270A128A11073083120313A900F7
:1006D8007C30A800A80B6E2BA90B6E2B00000330F2
:1006E8000A128A1127270A128A110F30831203135C
:1006F800A9004730A800A80B7F2BA90B7F2B03303C
:100708000A128A1127270A128A1102300A128A113C
:1007180027270A128A1102300A128A1127270A1279
:100728008A1108300A128A1127270A128A11003002
:100738000A128A1127270A128A110C300A128A1102
:1007480027270A128A1100300A128A1127270A124B
:100758008A1106300A128A1127270A128A110800FC
:1007680083120313A901A71FBA2BBB2BC22BA609FF
:10077800A709A60A0319A70A0130A900A51FC52BB6
:10078800C62BCB2BA409A509A40A0319A50A24087A
:1007980025040319D02BD12BFE2B0130A800DD2B0B
:1007A80001300310A40DA50DFF3E031DD52B01300C
:1007B800A807A51FE02BE12BD42B25082702031D32
:1007C800E72B24082602031CEA2BEB2BF12B240829
:1007D800A6022508031CA703A70201300310A50CD5
:1007E800A40CFF3E031DF22B0130A802031DFD2BB4
:1007F800FE2BE12B29080319022C032C082CA6092F
:10080800A709A60A0319A70A2708A5002608A4000D
:10081800080083120313AA002A03031D142C152CA5
:10082800352C28087F3EAD002D08A90004300310A0
:10083800A90CFF3E031D1B2C2908AB002D08AC009A
:100848000F30AC052B080A128A1127270A128A11C1
:10085800831203132C080A128A1127270A128A11F5
:100868005A2C02302A06031D3A2C3B2C5A2C2808F5
:10087800BF3EAD002D08A90004300310A90CFF3EAF
:10088800031D412C2908AB002D08AC000F30AC0526
:100898002B080A128A1127270A128A1183120313B6
:1008A8002C080A128A1127270A128A1108008312B3
:1008B8000313AE01AF01842C2E082907AC002A08C7
:1008C800AB000318AB0AAE1F6A2CAB0383120313E9
:1008D8002B08AD002D08FF002C0884000A128A118D
:1008E8005E250A128A110A128A1123250A128A1110
:1008F800013083120313AE070318AF0A0030AF07A5
:100908002E082907AC002A08AB000318AB0AAE1F53
:100918008E2CAB03831203132B08AD002D08FF00A8
:100928002C0884000A128A115E250A128A11003ADC
:10093800031D9F2CA02C602C080083120313050CA8
:10094800A400A40C240C0139A500050E0139A60049
:100958002503031DB02CB12CB62C26080319B52C81
:10096800B62CBC2C03305D06031DBB2CBC2CBF2C45
:100978000330DD00E52C2508031DC32CC42CCC2C2A
:100988002603031DC82CC92CCC2C0130DD00E52C16
:100998002503031DD02CD12CD82C2603031DD52CC0
:1009A800D62CD82CDD01E52C2508031DDC2CDD2CEC
:1009B800E52C2608031DE12CE22CE52C0230DD0095
:1009C800E52C08000A128A11A1240A128A110A2D9C
:1009D8000A128A11AE270A128A1183120313071505
:1009E800222D0A128A11BB270A128A11222D0A12F5
:1009F8008A11AE270A128A11222D0A128A11AE27ED
:100A08000A128A11831203130715222D8312031366
:100A18005D08A800A9012908003A0319142D012D21
:100A28002808003A0319FB2C013A0319222D033A2E
:100A38000319F52C013A0319EC2C012D0800831237
:100A48000313A8002808A6000F30A6052808A70049
:100A5800F030A70508152708A50004300310A50CD9
:100A6800FF3E031D322D25080A128A1107270A1294
:100A78008A118312031388150C3083120313A500FF
:100A8800A50B442D000083120313881126080A12AF
:100A98008A1107270A128A118312031388150C304A
:100AA80083120313A500A50B572D0000831203130F
:100AB80088110800FF1B682D83137F18831700080F
:100AC800840A0319FF0A080005308A000408840A0A
:100AD80082070034543461346E346B342034533418
:100AE80074346134743465343A34003443344834EB
:100AF800453449344F340034563441345A34493437
:100B08004F3400344D34453449344F34003445347F
:100B1800523452344F34003425346434003425348C
:100B28007334003483120313071487140716071548
:100B38008711FF30A400A501A601FF300A128A110F
:100B480043270A128A110A128A11E8270A128A11FF
:100B58000A128A1184270A128A110A128A11512349
:100B68000A128A110A128A11CA250A128A11640005
:100B78000A128A11E6240A128A110A128A11E62632
:100B88000A128A11BB2D0A128A1112280A128A1116
:100B9800C8270A128A1183120313A801A80A013070
:100BA8000A128A110D240A128A11C0308312031303
:100BB800C6002330C7008316031354088312031397
:100BC800D700D8015708C8005808C9000A128A1166
:100BD80080260A128A11C03083120313A90000303C
:100BE800AA000A128A115B240A128A1108008B1CB7
:100BF800FE2DFF2D032E8B100130DD001F2E0C1C47
:100C0800062E072E1F2E0C100A128A15F9270A1213
:100C18008A115E30F3000030F4000A128A117D2236
:100C28000A128A11D530F3000030F4000A128A1132
:100C38007D220A128A11831203132308FF00220857
:100C48008A0021088400200E8300FE0E7E0E090013
:100C580083120313060C0139F100060CF000700C26
:100C68000139F20071087C0603193B2E3C2E462EF2
:100C78007108031D402E412E462E0A128A11A02704
:100C88000A128A1172087B0603194B2E4C2E562E17
:100C98007208031D502E512E562E0A128A119227C1
:100CA8000A128A117108FC007208FB0008008312FE
:100CB80003134308C5006F2E4108B1004208B20073
:100CC8004530B3004408B4000030B5000A128A1158
:100CD80062200A128A1183120313450884000A123B
:100CE8008A1168250A128A11003A031D7C2E7D2E6E
:100CF800602EC101C2010800483083120313CB00E3
:100D08004608CC000030CD00CE01CF01D501D60178
:100D18004C30C1000030C2004708C3004B30C4004B
:100D28000A128A115B260A128A11831203134E08CB
:100D38004607CA004A08840083138001080083120A
:100D480003132408043EA60025080318013E003EAC
:100D5800A700260884008317271C8313013080000E
:100D68002408023EA60025080318013E003EA700FD
:100D7800260884008317271C83138001840A8001B6
:100D88000800831203132408043EA600250803184C
:100D9800013E003EA700260884008317271C831302
:100DA80080012408023EA60025080318013E003EE3
:100DB800A700260884008317271C83138001840A50
:100DC800800108008316031354087D06031DED2EC9
:100DD800EE2EEF2E062F5408FD00F82E0A128A1167
:100DE800CA250A128A11062F5408013A0319F22E4D
:100DF800033A0319F22E013A0319F22E073A03199E
:100E0800F22EF22E080083120313A400241C0D2FC7
:100E18000E2F102F0816112F0812A41C142F152F8F
:100E2800172F8816182F8812241D1B2F1C2F1E2FD2
:100E380008171F2F0813A41D222F232F252F8817CB
:100E4800262F8813080083120313A7000811270808
:100E58000A128A1107270A128A11831203138815A6
:100E6800063083120313A6002F30A500A50B3A2FD6
:100E7800A60B3A2F3F2F8312031388110800831201
:100E88000313A7002708831603138500831203138F
:100E98002408831603138600831203132508831678
:100EA800031387008312031326088316031388008D
:100EB800811308007E088A007F0882000A128A11BE
:100EC8005E270A128A118000840A04087D06031925
:100ED8000034FF0A0319FE0A622F83120313AB1BA7
:100EE800762F772F782F832F2A09AC002B09AD0096
:100EF800AC0A0319AD0A2C08AA002D08AB0008009B
:100F0800831203139010101690160A128A11F727ED
:100F18000A128A118312031310140800043083166E
:100F280003135402031C992F9A2F9D2F0130D400CC
:100F38009F2F0130D4070800023083160313540290
:100F48000318A72FA82FAB2F0430D400AD2F0130E2
:100F5800D40208008312031307145E30A400003083
:100F6800A5000A128A11C5260A128A1108008312DE
:100F7800031307105E30A4000030A5000A128A117E
:100F8800A3260A128A11080000300A128A1127279C
:100F98000A128A1101300A128A1127270A128A11A5
:100FA80008000D34193413341E34013498343A349B
:100FB800003400340034013464008001840A0406DB
:100FC800031900340406E12F8B1783160313011746
:100FD8000B160B170C1408000134013400340034CC
:100FE800003400340434FF30831203138F00673059
:060FF8008E000800080055
:101FE200013401340134033083120313DD0008008D
:0E1FF200FF30831203138F0067308E0008004B
:02400E00763FFB
:00000001FF
