:020000040000FA
:100000000A128A110C280134FE00030EF0000A08BF
:10001000F1000A128A157F2D0A128A110F28831304
:10002000E030FD000C30FE007E30FF00C730840061
:100030000A128A1546240A128A116F30FD000B300D
:10004000FE009430FF00663084000A128A154624B0
:100050000A128A110A128A1103200A128A11FB005D
:10006000A0308400C7300A128A158C230A128A1124
:100070005C30840066300A128A158C230A128A11B9
:10008000FA0183010A128A116C2BFF0000308A00EA
:100090007F0882074A280A128A15842B0A128A15B9
:1000A000F92B0A128A159D2B831203133608BE0002
:1000B0003708BF000030BF1BFF30C000C100380848
:1000C000C2003908C3000030C31BFF30C400C500A4
:1000D0003E08C2023F08031C3F0F6F287028C3026E
:1000E0004008031C400F75287628C4024108031CF1
:1000F000410F7B287C28C5024508D1004408D00068
:100100004308CF004208CE00510850044F044E046B
:10011000031D8B288C2896283A08B4003B08B500AC
:100120000030B51BFF30B600B70043293A08BE00C7
:100130003B08BF000030BF1BFF30C000C1003C08BF
:10014000C2003D08C3000030C31BFF30C400C5001F
:100150003E08C2023F08031C3F0FAF28B028C3026D
:100160004008031C400FB528B628C4024108031CF0
:10017000410FBB28BC28C5024508C9004408C80077
:100180004308C7004208C6003608BE003708BF0053
:100190000030BF1BFF30C000C1003408C20035086A
:1001A000C3000030C31BFF30C400C5003E08C202BC
:1001B0003F08031C3F0FDD28DE28C3024008031C54
:1001C000400FE328E428C4024108031C410FE9283A
:1001D000EA28C5024508CD004408CC004308CB00FE
:1001E0004208CA003A08BE003B08BF000030BF1BEF
:1001F000FF30C000C1005108A8005008A7004F08F8
:10020000A6004E08A5004D08F5004C08F4004B0868
:10021000F3004A08F2004908F9004808F8004708C6
:10022000F7004608F6000A128A1166270A128A1198
:10023000750883120313AC007408AB007308AA009E
:100240007208A9000A128A11D3220A128A11831293
:1002500003132508BE0726080318260F3029312965
:10026000BF0727080318270F36293729C007280892
:100270000318280AC1074108B7004008B6003F0824
:10028000B5003E08B4000800831203132B08840055
:100290008313000884000A128A110A240A128A11A0
:1002A000253A031D54295529192A2B0884000130A9
:1002B000800783160313C301C401003083120313A4
:1002C000E400FF3083160313C500FF30C60083121D
:1002D00003132B0884000008B000300884000A12C1
:1002E0008A110A240A128A11643A03197829792991
:1002F0008529300884000A128A110A240A128A11F8
:10030000693A031D84298529112A2C0884000008D4
:10031000FF00023080077F0884000008B100840AD3
:100320000008B2002B0884003008013E8000203015
:10033000B500B21B9C299E2901309F290030AF00D7
:100340000130B5023508A03E84000A30F2000030CA
:10035000F3003208F5003108F4000A128A117226FF
:100360000A128A117308F9007208F8000A128A1535
:1003700009240A128A117808303E831380000A305B
:10038000F2000030F300831203133208F500310845
:10039000F4000A128A1152250A128A117308831274
:1003A0000313B2007208B100310832040319D929CD
:1003B000DA29DF293508031DDE29DF29A0293508C0
:1003C0000319E329E4290A2A2F080319E829E9294E
:1003D0000A2A0130B5023508A03E84002D3083136F
:1003E00080000A2A3508A03E840083130008AD006F
:1003F000AE012D08F2002E08F3002908F4002A08A7
:10040000F5000A128A1133220A128A11013083126E
:100410000313B50720303506031D0F2A102AF229D1
:10042000322A831203132B088400013083138007C0
:10043000322A2B088400000884000A128A110A2438
:100440000A128A11AD00AE012D08F2002E08F30049
:100450002908F4002A08F5000A128A1133220A1228
:100460008A11112A0800740875040319382A392AD8
:100470003F2A74087504031D3E2A3F2A462A720843
:100480000A128A1573230A128A11D22A7408093EA5
:1004900083120313A00075080318013E003EA1005B
:1004A000200884008317211C83130008A200840AFB
:1004B0000008A3002208230403195F2A602A922A55
:1004C0007408093EA00075080318013E003EA10013
:1004D000200884008317211C83130008A200840ACB
:1004E0000008A3007408023EA40075080318013E2A
:1004F000003EA500240884008317251C83130008F0
:10050000A600840A0008A7002708803AA80023084C
:10051000803A2802031D8E2A220826020318912AF7
:10052000922AD22A740884008317751C831300084A
:1005300083120313A000840A0008A1007408023E7D
:10054000A20075080318013E003EA30022088400A3
:100550008317231C831300082007A5002108A4008B
:100560000318A40A801FB52AA403831203132408C6
:10057000A600250884008317261C831372088000B8
:100580007408023EA00075080318013E003EA10059
:10059000200884008317211C831301308007840AFC
:1005A0000318800A080083120313AF01A81FD92A79
:1005B000DA2AE72AA509A609A709A809A50A03199D
:1005C000A60A0319A70A0319A80A0130AF00AC1F35
:1005D000EA2AEB2AF82AA909AA09AB09AC09A90A4F
:1005E0000319AA0A0319AB0A0319AC0A0130AF06B2
:1005F0000030B3000030B2000030B1000030B00075
:1006000028082704260425040319072B082B532B3D
:100610000130AE00162B0130AD000310A50DA60D64
:10062000A70DA80DAD0B0D2B0130AE07A81F192B80
:100630001A2B0B2B0130AD000310B00DB10DB20D14
:10064000B30DAD0B1C2B28082C02031D312B2708E2
:100650002B02031D312B26082A02031D312B2508EE
:100660002902031C342B352B442B2508A90226080C
:10067000031C260FAA022708031C270FAB02280819
:10068000031C280FAC02301401300310A80CA70C77
:10069000A60CA50CFF3E031D452B0130AE02031D29
:1006A000522B532B1A2B2F080319572B582B632B24
:1006B000B009B109B209B309B00A0319B10A0319A3
:1006C000B20A0319B30A3308A8003208A700310898
:1006D000A6003008A5000800FF30F200F301F40185
:1006E000FF300A128A15EA230A128A1183120313B1
:1006F000071487140716071587150A128A1574231D
:100700000A128A110A128A157C230A128A110A1205
:100710008A11F5270A128A110A128A15A7230A12CA
:100720008A110A128A1115260A128A110A128A15CA
:10073000F9230A128A1164000A128A1546260A123F
:100740008A11831203136308F7006208F6000A1285
:100750008A152F270A128A110A128A15AF260A1241
:100760008A11DC3083120313D2000030D3000A1246
:100770008A11C9260A128A11D83083120313D200B3
:100780000030D3000A128A11C9260A128A11D43005
:1007900083120313D2000030D3000A128A11C92633
:1007A0000A128A11831203136108803AFF00833012
:1007B0007F02031DDD2B84306002031CE02BE12B44
:1007C000E52B831203138711E82B8312031387157C
:1007D0005F08803AFF0080307F02031DF12B1E303E
:1007E0005E02031CF42BF52BF92B83120313071263
:1007F0009B2B8312031307169B2B0A128A110C28BA
:10080000FF1B0A2C83137F1883170008840A03191F
:10081000FF0A080004308A000408840A82070034B2
:100820004C3455345A3420344134523454344934DD
:10083000463449344334493441344C34003445342B
:1008400053345434413444344F34203454344134D8
:100850004E345134553445340034543445344D34D9
:100860005034453452344134543455345234413484
:100870003A34003455344D344934443441344434EA
:100880004534203453344F344C344F3400344934DD
:1008900052345234493447344134433441344F3470
:1008A0003A3400344434453453344C3449344734B6
:1008B00041344434413400344334483445344934B9
:1008C0004F340034563441345A3449344F340034B0
:1008D0004534523452344F34523400344D3445345C
:1008E00049344F3400344534523452344F34003498
:1008F0004F344634463400344F344E3400342534BB
:1009000064340034831603135108831203135F0603
:10091000031D902C831603135008831203135E06E5
:10092000031D932C942C9B2C65086A06031D992C9F
:100930009A2C9B2CEC2C5F0883160313D100831296
:1009400003135E0883160313D0000A128A15B4231A
:100950000A128A110330F60001300A128A11182790
:100960000A128A111E30F7008030F8000A128A1528
:1009700074270A128A110730F60002300A128A110F
:1009800018270A128A114C3083120313BB007030EF
:10099000BC005F08BE005E08BD000A128A1539253A
:1009A0000A128A114C30F7000030F8000A128A153A
:1009B00074270A128A11DF300A128A157A260A125F
:1009C0008A1143300A128A157A260A128A110A12EB
:1009D0008A15B1240A128A110800831603135308DA
:1009E000831203136306031DFB2C831603135208A3
:1009F000831203136206031DFE2CFF2C062D6508CF
:100A00006A06031D042D052D062D512D630883163E
:100A10000313D30083120313620883160313D20057
:100A20000A128A15B4230A128A110230F600013024
:100A30000A128A1118270A128A112B30F700803007
:100A4000F8000A128A1574270A128A110630F60075
:100A500002300A128A1118270A128A114C308312A6
:100A60000313BB007030BC006308BE006208BD0009
:100A70000A128A1539250A128A114C30F700003003
:100A8000F8000A128A1574270A128A1125300A12F0
:100A90008A157A260A128A110A128A15B1240A12B4
:100AA0008A110800F701F31F562D572D5E2DF2090C
:100AB000F309F20A0319F30A0130F700F51F612D5B
:100AC000622D692DF409F509F40A0319F50A0130BC
:100AD000F706F801F901720873040319702D712DDE
:100AE000A62D0130F6007D2D01300310F20DF30D1F
:100AF000FF3E031D752D0130F607F31F802D812D5C
:100B0000742D01300310F80DF90DFF3E031D822DE9
:100B100073087502031D8E2D72087402031C912D3B
:100B2000922D992D7208F4027308031CF503F50247
:100B3000781401300310F30CF20CFF3E031D9A2DC4
:100B40000130F602031DA52DA62D812D770803196E
:100B5000AA2DAB2DB02DF809F909F80A0319F90AE5
:100B60007908F3007808F2000800831603134F0891
:100B7000831203136106031DC32D831603134E084E
:100B8000831203136006031DC62DC72DCE2D6508E5
:100B90006A06031DCC2DCD2DCE2D142E6108831693
:100BA0000313CF0083120313600883160313CE00D0
:100BB0000A128A15B4230A128A110230F600013093
:100BC0000A128A1118270A128A110130F7008030A0
:100BD000F8000A128A1574270A128A110430F600E6
:100BE00002300A128A1118270A128A11831203137B
:100BF0008719FB2DFC2D062E4630F7008030F800BB
:100C00000A128A1574270A128A110F2E4330F70030
:100C10008030F8000A128A1574270A128A110A1203
:100C20008A15B1240A128A11080000300A128A15A6
:100C3000D2240A128A111A30F700F830F600F60BA7
:100C40001F2EF70B1F2E000003300A128A1597245F
:100C50000A128A110730F7007D30F600F60B2E2EAF
:100C6000F70B2E2E03300A128A1597240A128A11C6
:100C70000F30F7004730F600F60B3C2EF70B3C2EFA
:100C8000412E03300A128A1597240A128A11023063
:100C90000A128A1597240A128A1102300A128A153A
:100CA00097240A128A1108300A128A1597240A1208
:100CB0008A1100300A128A1597240A128A110C3000
:100CC0000A128A1597240A128A1100300A128A150C
:100CD00097240A128A1106300A128A1597240A12DA
:100CE0008A110800F701F51F762E772E7E2EF40963
:100CF000F509F40A0319F50A0130F700F31F812EF4
:100D0000822E872EF209F309F20A0319F30A7208F8
:100D1000730403198C2E8D2EBA2E0130F600992EF5
:100D200001300310F20DF30DFF3E031D912E013033
:100D3000F607F31F9C2E9D2E902E73087502031D3F
:100D4000A32E72087402031CA62EA72EAD2E7208C5
:100D5000F4027308031CF503F50201300310F30CD1
:100D6000F20CFF3E031DAE2E0130F602031DB92E1C
:100D7000BA2E9D2E77080319BE2EBF2EC42EF4095D
:100D8000F509F40A0319F50A7508F3007408F2006E
:100D90000800831203135208023ED40053080318BC
:100DA000013E003ED500540884008317551C831370
:100DB0000008031DDC2EDD2EDE2E172F52088400C6
:100DC0008317531C83130008D400840A0008D5003D
:100DD00055085D02031DEE2E54085C02031CF12E23
:100DE000F22E172F5208033ED40053080318013E79
:100DF000003ED500540884008317551C8313000857
:100E00000319032F042F172F5208033ED400530851
:100E10000318013E003ED500540884008317551C7A
:100E2000831300080A128A1145200A128A11080049
:100E300083120313A0002003031D1F2F202F402F18
:100E400076087F3EA3002308F70004300310F70C58
:100E5000FF3E031D262F7708A1002308A2000F30B4
:100E6000A20521080A128A1597240A128A118312F0
:100E7000031322080A128A1597240A128A11652F71
:100E800002302006031D452F462F652F7608BF3EF2
:100E9000A3002308F70004300310F70CFF3E031DE6
:100EA0004C2F7708A1002308A2000F30A2052108CB
:100EB0000A128A1597240A128A1183120313220830
:100EC0000A128A1597240A128A1108000030831228
:100ED0000313A4000030A3000030A2000030A100E2
:100EE000721C732F742F8B2F7608A10777080311BC
:100EF0000318013E03197D2FA20778080311031878
:100F0000013E0319842FA307790803110318013E3A
:100F100003198B2FA4070130A0000310F60DF70D65
:100F2000F80DF90DA00B8D2F01300310F50CF40C0A
:100F3000F30CF20CFF3E031D952F75087404730427
:100F40007204031DA42FA52F702F2408F500230879
:100F5000F4002208F3002108F200080083120313B2
:100F6000070EF200F20C720C0139F300070D070DA9
:100F70000139F40003307B06031DBF2FC02FC32FA0
:100F80000330FB00F42F7303031DC72FC82FCE2F90
:100F90007408031DCC2FCD2FCE2FC02F7308031D37
:100FA000D22FD32FDB2F7403031DD72FD82FDB2F86
:100FB0000130FB00F42F7303031DDF2FE02FE72F19
:100FC0007403031DE42FE52FE72FFB01F42F7308B3
:100FD000031DEB2FEC2FF42F7408031DF02FF12FBE
:100FE000F42F0230FB00F42F08008312031390103B
:100FF000101690160B308F00DB308E001014080096
:1016E6000800831603138115011481140115640083
:1016F60008008B178316031301170B160B170C1410
:1017060008000A128A151C240A128A150330FB00E7
:10171600080064008001840A0406031900340406E4
:101726008D2B32341E340134013401340534FF3438
:101736000134FF340A128A1569240A128A15023006
:1017460083120313ED000800831603131F109F1066
:101756001F119F119F17831203131F139F131F142B
:10176600080000300A128A1597240A128A150130D9
:101776000A128A1597240A128A15080002300A12DC
:101786008A15A3250A128A15730883120313E1002A
:101796007208E00008000230831203136A0203187D
:1017A600D52BD62BD92B0530EA00DB2B0130EA02EC
:1017B60008000530831203136A02031CE32BE42B93
:1017C600E72B0130EA00E92B0130EA070800F500B3
:1017D6007508831603138500720886007308870050
:1017E6007408880081130717871708000A128A15DC
:1017F600F1250A128A150A128A15C7250A128A15B0
:101806000A128A15C1230A128A150800F91B0C2C24
:101816000D2C0E2C1B2C780983120313A0007909BA
:10182600A100A00A0319A10A2008F8002108F9005E
:101836000800FA181F2C202C212C2E2CFA108312AB
:1018460003130714DC30F2000030F3000A128A1585
:10185600F4240A128A150800FA1C322C332C342C74
:10186600412CFA14831203130710DC30F200003007
:10187600F3000A128A155C250A128A1508007E08EA
:101886008A007F0882000A128A1542240A128A15E3
:101896008000840A04087D0603190034FF0A031930
:1018A600FE0A462C7A1C582C592C5A2C682C83126A
:1018B60003138710ED017A14D830F2000030F300DC
:1018C6000A128A155C250A128A1508007A186C2CE9
:1018D6006D2C6E2C7D2C8312031387147A10013025
:1018E600ED00D830F2000030F3000A128A15F42415
:1018F6000A128A1508004D345F34533464346D344B
:1019060069345934FF34FF34FF34FF34FF34FF3475
:1019160002340034013404341434003400340734FF
:101926001E34003400340134F50083120313081109
:1019360075080A128A15D2240A128A15831203130D
:1019460088150630F4003030F300F30BA82CF40BA6
:10195600A82C00008312031388110800003083129C
:101966000313A5000030A6000030A7006A08303E29
:10197600A5002F30A6003530A7000E30F600023045
:101986000A128A1118270A128A152530F700003024
:10199600F8000A128A1574270A128A150800F2003E
:1019A600721CD62CD72CDB2C831203130816DE2CC4
:1019B600831203130812F21CE12CE22CE42C881685
:1019C600E52C8812721DE82CE92CEB2C0817EC2C60
:1019D6000813F21DEF2CF02CF22C8817F32C881329
:1019E60008007208023EF40073080318013E003E28
:1019F600F500740884008317751C83130008031D03
:101A0600052D062D072D152D7208023EF4007308CC
:101A16000318013E003EF500740884008317751C08
:101A2600831380010800831203133808BA00282D97
:101A36003608A9003708AA003A30AB003908AC00CE
:101A46000A128A1144210A128A15831203133A08CC
:101A560084000A128A110A240A128A15003A031D02
:101A6600352D362D1B2DB601B70108003D308312EA
:101A76000313C0003B08C1000030C200C301C4010B
:101A8600CA01CB014130B6000030B7003C08B800AF
:101A96004030B9000A128A1516250A128A158312D1
:101AA600031343083B07BF003F08840083138001EC
:101AB60008007208023EF40073080318013E003E57
:101AC600F500740884008317751C83130008031936
:101AD6006D2D6E2D6F2D7E2D7208023EF40073085B
:101AE6000318013E003EF500740884008317751C38
:101AF60083130130800008008B1C822D832D8B2DD3
:101B06008B100330FB00023083120313ED009C2D73
:101B1600831203130C1C902D912D9C2D0C10DC3080
:101B26008E000B308F000130DC070318DD0A003011
:101B3600DD0771088A00700E8300FE0E7E0E090016
:101B4600F5007508F400F40DF40DF40D831203137B
:101B56001F087406C73974069F000630F400F40B9C
:101B6600B22D0000831203131F19BA2DBB2DB52DFC
:101B76001F151F19BF2DC02DBC2D1E08F30083167F
:101B860003131E08F200080000300A128A15A32566
:101B96000A128A15730883120313E3007208E2001F
:101BA6006308B5006208B4000030B600B700FF3025
:101BB600B8000330B9000030BA00BB006430BC0086
:101BC6000030BD000A128A1154200A128A158312A7
:101BD60003133508E3003408E200080001300A1256
:101BE6008A15A3250A128A15730883120313DF00C8
:101BF6007208DE005F08B5005E08B4000030B6006B
:101C0600B700FF30B8000330B9000030BA00BB009F
:101C1600F430BC000130BD000A128A1154200A12A9
:101C26008A15831203133508DF003408DE00080026
:101C3600831203138618202E212E2B2E69080319D2
:101C4600252E262E2B2E0A128A15CE230A128A1527
:101C5600831203130619302E312E3B2E6808031902
:101C6600352E362E3B2E0A128A15DC230A128A15C9
:101C760083120313060C0139E900060CF200720CFC
:101C86000139E80008000A128A11AE270A128A15DD
:101C9600612E0A128A151C240A128A15831203134E
:101CA6000711792E0A128A152F240A128A15792EFF
:101CB6000A128A151C240A128A15792E7B08F60048
:101CC600F701F61BF7037708003A03196B2E5B2E14
:101CD6007608003A03195B2E013A0319792E033A66
:101CE6000319552E013A03194C2E5B2E0800F600F7
:101CF6007608F4000F30F4057608F500F030F505A7
:101D06008312031308157508F30004300310F30C4F
:101D1600FF3E031D892E73080A128A15D2240A1261
:101D26008A158312031388150D30F300F30B992ED1
:101D360083120313881174080A128A15D2240A1210
:101D46008A158312031388150D30F300F30BA92EA1
:101D560083120313881108000A128A151B260A1219
:101D66008A15D32E0A128A15EB260A128A15E62E32
:101D76000A128A15BA270A128A15E62E0A128A113B
:101D8600ED240A128A15E62E0A128A1182240A12F4
:101D96008A15E62E0A128A11B5250A128A15E62E2A
:101DA600831203136A08013A0319B52E033A03197D
:101DB600BB2E013A0319C12E073A0319C72E013A61
:101DC6000319CD2EE62E831203136A08E5000800D8
:101DD6007B08831203136E06031DF22EF32EFA2ED2
:101DE60065086A06031DF82EF92EFA2E2E2F7B089B
:101DF600EE000A128A15B4230A128A150230F6007A
:101E060001300A128A1118270A128A151030F700B3
:101E16008030F8000A128A1574270A128A150630CD
:101E2600F60002300A128A1118270A128A157B0850
:101E3600C73E840083130008F7000030031D80307E
:101E4600F8000A128A1574270A128A150A128A15C8
:101E5600B1240A128A1508000230831203136D0694
:101E6600031D362F372F402F0A128A1569240A12AE
:101E76008A15831203130711732F02307B06031989
:101E8600452F462F4C2F03307B06031D4B2F4C2F1F
:101E9600522F0A128A1569240A128A15732F770897
:101EA600803AFF0080307F02031D5B2F1F307602D1
:101EB60003185E2F5F2F652F0A128A1555240A1202
:101EC6008A15732F7708803AFF0080307F02031D42
:101ED6006E2F32307602031C712F722F732F4C2F08
:101EE600080083120313A301A4019D2F230877077B
:101EF600A1007808A0000318A00AA31F832FA0033F
:101F0600831203132008A2002208FF002108840080
:101F16000A128A1100240A128A150A128A157A26CA
:101F26000A128A15013083120313A3070318A40AA1
:101F36000030A40723087707A1007808A00003183B
:101F4600A00AA31FA72FA003831203132008A20031
:101F56002208FF00210884000A128A1100240A12AE
:101F66008A15003A031DB82FB92F792F080083125E
:101F760003136D086C06031DC12FC22FC92F6508F8
:101F86006A06031DC72FC82FC92FFF2F6D08EC0047
:101F96000A128A15B4230A128A150230F600013095
:101FA6000A128A1118270A128A153830F70080306B
:101FB600F8000A128A1574270A128A150430F600E8
:101FC60002300A128A1118270A128A15831203137D
:101FD6006D08CB3E840083130008F7000030031D14
:101FE6008030F8000A128A1574270A128A150A1216
:0A1FF6008A15B1240A128A150800AA
:02400E00763FFB
:00000001FF
